:100000000C9434000C9451000C9451000C94510049
:100010000C9451000C9451000C9451000C9451001C
:100020000C9451000C9451000C9451000C9451000C
:100030000C9451000C944A010C9451000C94510002
:100040000C9451000C9451000C9460020C948E029C
:100050000C9451000C945F010C9451000C945100CD
:100060000C9451000C94510011241FBECFEFD8E026
:10007000DEBFCDBF11E0A0E0B1E0E8E5F6E002C0F0
:1000800005900D92A835B107D9F721E0A8E5B1E0B8
:1000900001C01D92AD39B207E1F70E94F6000C9441
:1000A0002A030C940000299A85E08A95F1F7000054
:1000B00029980895CF93C82F662311F0289A01C07C
:1000C0002898549A559A569A579A5F985E985D98D0
:1000D0005C98CC230CF45F9AC6FD5E9AC5FD5D9AD0
:1000E000C4FD5C9A0E9453005F985E985D985C988E
:1000F000C3FD5F9AC2FD5E9AC1FD5D9AC0FD5C9A28
:100100000E9453005C9A5D9A5E9A5F9A87EB9BE02F
:100110000197F1F700C00000CF91089560E00E94C0
:100120005A000895611104C080580E948E000895FD
:1001300080540E948E00089581E00E948E000895F0
:1001400061E00E945A000895CF93DF93EC0121965D
:10015000FC018081882329F00E94A00089918111EF
:10016000FBCFDF91CF910895CF93C82F209A559A56
:10017000219A549A559A569A579A8FEF99EF019768
:10018000F1F700C000005D9A5C9A0E9453008FE175
:100190009EE40197F1F700C000000E9453008FEF2A
:1001A00090E00197F1F700C000000E9453008FEF2C
:1001B00090E00197F1F700C000005C980E945300A6
:1001C0008FEF90E00197F1F700C0000088E20E94F5
:1001D0008E0088E00E948E000E949C0086E00E94B3
:1001E0008E008C2F0E948E00CF9108958CE00E948B
:1001F000B40060E081E00E94920080E091E00E9403
:10020000A40061E083E00E94920087E091E00E94F8
:10021000A40060E088E00E9492008CE091E00E94DF
:10022000A40060E08DE00E9492008EE091E00E94C8
:10023000A40061E088E00E94920080E191E00E94C9
:10024000A400ECE7F0E080818064808380818F7778
:1002500080838081807F8083EAE7F0E0808180680E
:100260008083808188608083808187608083E1E8EB
:10027000F0E080818B7F8083808183608083EFE6E4
:10028000F0E080818160808387E690E00E94B80280
:100290007894FFCF1F920F920FB60F9211248F9375
:1002A000EF93FF93EAE7F0E0808180648083FF9121
:1002B000EF918F910F900FBE0F901F9018951F9286
:1002C0000F920FB60F921124FF920F931F932F934B
:1002D0003F934F935F936F937F938F939F93AF93CE
:1002E000BF93EF93FF93CF93DF93CDB7DEB72D97F7
:1002F000DEBFCDBF0091780010917900FE013696E7
:1003000080E090E061E070E051E0A0E09B01082E09
:1003100002C0220F331F0A94E2F720233123452F16
:10032000232B09F44A2F419301968830910571F7E8
:10033000FE808F81F8268885F8268985F8268A85AB
:10034000F8268B85F8268C85F8268D85F82661E0C1
:100350008EE00E9492004AE0BE016F5F7F4F8F2DBA
:1003600090E00E94F502CE0101960E94A4004AE0AE
:10037000BE016F5F7F4FC8010E94F50260E088E018
:100380000E9492008DE291E00E94A40060E088E06B
:100390000E949200CE0101960E94A4000C3B82E0D4
:1003A000180760F482E191E00E94E602CE01019616
:1003B0000E94E60289E291E00E94E60240E1BE016D
:1003C0006F5F7F4FC8010E94F50260E08DE00E94E0
:1003D00092008DE291E00E94A40060E08DE00E9416
:1003E0009200CE0101960E94A40061E088E00E9484
:1003F00092008BE291E00E94A400073F83E018077F
:1004000048F061E088E00E94920082E391E00E945F
:10041000A4003AC0033882E0180748F061E088E0A1
:100420000E94920089E391E00E94A4002DC00B3845
:1004300081E0180748F061E088E00E94920080E4C3
:1004400091E00E94A40020C00E3E110548F061E03A
:1004500088E00E94920087E491E00E94A40014C00A
:100460000D35110548F061E088E00E9492008EE4AD
:1004700091E00E94A40008C061E088E00E94920020
:1004800081E591E00E94A4002D960FB6F894DEBF9E
:100490000FBECDBFDF91CF91FF91EF91BF91AF9193
:1004A0009F918F917F916F915F914F913F912F918C
:1004B0001F910F91FF900F900FBE0F901F901895F6
:1004C0001F920F920FB60F9211242F938F939F9329
:1004D000EF93FF938091C0002091C6008C71E09152
:1004E0005A01EF5FEF7190915901E91739F0E093EC
:1004F0005A01F0E0E35AFE4F208301C082E0909160
:100500005801892B80935801FF91EF919F918F9112
:100510002F910F900FBE0F901F9018951F920F9262
:100520000FB60F9211248F939F93EF93FF939091A7
:100530005C0180915B01981769F0E0915B01EF5FCE
:10054000EF71E0935B01F0E0E358FE4F8081809310
:10055000C60005C0E1ECF0E080818F7D8083FF91D3
:10056000EF919F918F910F900FBE0F901F90189554
:1005700010925C0110925B0110925A011092590185
:1005800099231CF422E02093C00090789093C5003A
:100590008093C40088E98093C10086E08093C20004
:1005A000089520915C012F5F2F7190915B012917B5
:1005B000E1F3E22FF0E0E358FE4F808320935C01EB
:1005C000E1ECF0E08081806280830895CF93DF9337
:1005D000EC018881882331F021960E94D102899113
:1005E0008111FBCFDF91CF910895BB274A3031F4C1
:1005F000992322F4BDE2909581959F4F0C940103BD
:10060000BB27FB015527AA27880F991FAA1FA417EC
:1006100010F0A41B83955051B9F7A05DAA3308F0E0
:10062000A95DA193009779F7B111B1931192CB0114
:100630000C941A03DC01FC01672F71917723E1F719
:10064000329704C07C916D9370836291AE17BF079F
:08065000C8F30895F894FFCFF0
:1006580076616C75653A006B65793A0061006200F5
:1006680063004144432076616C756520696E20649F
:100678006563696D616C3A20000A00202020202003
:1006880020004E6F6E6520200053656C6563740012
:100698004C656674202000446F776E2020005570EA
:0806A80000526967687420002C
:00000001FF
