:100000000C9434000C9449000C9449000C94490061
:100010000C9449000C9449000C9449000C9449003C
:100020000C9449000C9449000C9449000C9449002C
:100030000C9449000C9449000C9449000C9449001C
:100040000C9449000C9449000C9449000C9449000C
:100050000C9449000C9449000C9449000C944900FC
:100060000C9449000C94490011241FBECFEFD8E036
:10007000DEBFCDBF11E0A0E0B1E0E0EBF1E002C0F7
:1000800005900D92A430B107D9F70E94C2000C94DC
:10009000D6000C94000025B190E2922795B98335E3
:1000A00051F42FEF83EC99E0215080409040E1F72C
:1000B00000C0000009C02FEF8BE49DE1215080407B
:1000C0009040E1F700C0000095B180E2892785B932
:1000D0002FEF83EC99E0215080409040E1F700C081
:1000E00000000895843429F0853469F08233F1F4F6
:1000F0000EC08CE40E944B0083E50E944B0083E518
:100100000E944B0013C083E50E944B000FC083E5A3
:100110000E944B0083E50E944B008CE40E944B0040
:100120008CE40E944B008CE40E944B002FEF8BE488
:100130009DE1215080409040E1F700C0000008950B
:10014000EF92FF920F931F93CF93DF938C017C016B
:10015000C0E0D0E006C0F70181917F010E947200EB
:100160002196F80101900020E9F73197E01BF10B8F
:10017000CE17DF0780F3DF91CF911F910F91FF9092
:10018000EF900895259A2D9880E091E00E94A000BC
:1001900087E090E02FEF33EC49E0215030404040C1
:1001A000E1F700C000000197A9F7EECFF894FFCF68
:0401B0004445320090
:00000001FF
