:100000000C9434000C9451000C9451000C94510049
:100010000C9451000C9451000C9451000C9451001C
:100020000C9451000C94A1010C9451000C945100BB
:100030000C9451000C9451000C9451000C945100FC
:100040000C944E010C9451000C9451000C945100EE
:100050000C9451000C9451000C9451000C945100DC
:100060000C9451000C94510011241FBECFEFD8E026
:10007000DEBFCDBF11E0A0E0B1E0E6E7F5E002C0F1
:1000800005900D92A434B107D9F721E0A4E4B1E0C2
:1000900001C01D92AF34B207E1F70E94FA000C9440
:1000A000B9020C940000299A85E08A95F1F70000C6
:1000B00029980895CF93C82F662311F0289A01C07C
:1000C0002898549A559A569A579A5F985E985D98D0
:1000D0005C98CC230CF45F9AC6FD5E9AC5FD5D9AD0
:1000E000C4FD5C9A0E9453005F985E985D985C988E
:1000F000C3FD5F9AC2FD5E9AC1FD5D9AC0FD5C9A28
:100100000E9453005C9A5D9A5E9A5F9A87EB9BE02F
:100110000197F1F700C00000CF91089560E00E94C0
:100120005A00089561E00E945A000895611104C0C8
:1001300080580E948E00089580540E948E00089579
:1001400081E00E948E00089561E00E945A000895A7
:10015000CF93DF93EC012196FC018081882329F065
:100160000E94A40089918111FBCFDF91CF91089566
:10017000CF93C82F209A559A219A549A559A569AF5
:10018000579A8FEF99EF0197F1F700C000005D9A41
:100190005C9A0E9453008FE19EE40197F1F700C042
:1001A00000000E9453008FEF90E00197F1F700C02C
:1001B00000000E9453008FEF90E00197F1F700C01C
:1001C00000005C980E9453008FEF90E00197F1F7D8
:1001D00000C0000088E20E948E0088E00E948E002D
:1001E0000E94A00086E00E948E008C2F0E948E004C
:1001F000CF9108958CE00E94B80080E40E948E00A8
:10020000C0E0D1E000E311E089910E949200C017A4
:10021000D107D1F780E80E948E0080E00E94A40000
:1002200060E08FE00E94960080E00E94A40060E001
:1002300081E00E94960080E391E00E94A80060E0C7
:100240008BE00E94960081E60E94A40061E081E0BC
:100250000E94960082E60E94A40061E08BE00E946A
:10026000960083E60E94A400E1EBF0E080818E7F9F
:100270008083808186608083E0E7F0E08081816018
:10028000808385B58C7F85BD85B5846085BDEEE6B0
:10029000F0E08081816080837894FFCF1F920F927D
:1002A0000FB60F9211242F933F934F935F936F9349
:1002B0007F938F939F93AF93BF93EF93FF9380911F
:1002C0004E018F5F853018F480934E0129C0109243
:1002D0004E0180914D018F5F853018F480934D0160
:1002E00014C010924D0180914C018F5F8A3018F438
:1002F00080934C010AC010924C0161E081E00E94A1
:10030000960088E391E00E94A80080914C0161E092
:100310008F5F0E94960080914D018F5F0E94A40024
:10032000FF91EF91BF91AF919F918F917F916F91CD
:100330005F914F913F912F910F900FBE0F901F90A3
:1003400018951F920F920FB60F9211242F933F937F
:100350004F935F936F937F938F939F93AF93BF93CD
:10036000EF93FF93CF93DF93CDB7DEB72597DEBF33
:10037000CDBF80E290E29A8389831C821B821D821A
:1003800080914B018F5F8A3118F480934B01A4C098
:1003900010924B0180914A018F5F8A3018F480934C
:1003A0004A0107C010924A01809149018F5F8093F2
:1003B0004901809149018C3338F0109249018091B4
:1003C00048018F5F80934801809148018C3310F081
:1003D0001092480180914901889FC0011124092E83
:1003E000000CAA0BBB0B8093440190934501A09392
:1003F0004601B093470180914A014AE0BE016F5F18
:100400007F4F90E00E94840260E087E00E949600A7
:10041000CE0101960E94A800809149018A3060F4C3
:1004200060E084E00E94960080E30E94A40060E007
:1004300085E00E94960004C060E084E00E9496007F
:10044000809149014AE0BE016F5F7F4F90E00E94BA
:100450008402CE0101960E94A800809148018A3052
:1004600060F460E081E00E94960080E30E94A400B6
:1004700060E082E00E94960004C060E081E00E949B
:100480009600809148014AE0BE016F5F7F4F90E087
:100490000E948402CE0101960E94A8008091490129
:1004A000811108C060E08BE00E9496008EE391E02D
:1004B0000E94A80060E08BE00E9496004AE0BE0126
:1004C0006F5F7F4F80914401909145010E948402AB
:1004D000CE0101960E94A8000F900F900F900F90F0
:1004E0000F90DF91CF91FF91EF91BF91AF919F91CD
:1004F0008F917F916F915F914F913F912F910F90CD
:100500000FBE0F901F901895BB274A3031F49923E6
:1005100022F4BDE2909581959F4F0C949002BB27E9
:10052000FB015527AA27880F991FAA1FA41710F0AF
:10053000A41B83955051B9F7A05DAA3308F0A95DBB
:10054000A193009779F7B111B1931192CB010C945B
:10055000A902DC01FC01672F71917723E1F7329743
:1005600004C07C916D9370836291AE17BF07C8F38E
:060570000895F894FFCF8E
:10057600040E1F1F1F040E1F101010101010101055
:1005860018181818181818181C1C1C1C1C1C1C1CC5
:100596001E1E1E1E1E1E1E1E1F1F1F1F1F1F1F1F6D
:1005A60030303A30302E30002020202020202020ED
:0405B6002020000001
:00000001FF
